{
  "_format": "hh-sol-artifact-1",
  "contractName": "DogsNft",
  "sourceName": "contracts/DogsNft.sol",
  "abi": [
    {
      "inputs": [],
      "stateMutability": "nonpayable",
      "type": "constructor"
    },
    {
      "anonymous": false,
      "inputs": [
        {
          "indexed": true,
          "internalType": "address",
          "name": "_owner",
          "type": "address"
        },
        {
          "indexed": true,
          "internalType": "address",
          "name": "_approved",
          "type": "address"
        },
        {
          "indexed": true,
          "internalType": "uint256",
          "name": "_tokenId",
          "type": "uint256"
        }
      ],
      "name": "Approval",
      "type": "event"
    },
    {
      "anonymous": false,
      "inputs": [
        {
          "indexed": true,
          "internalType": "address",
          "name": "_owner",
          "type": "address"
        },
        {
          "indexed": true,
          "internalType": "address",
          "name": "_operator",
          "type": "address"
        },
        {
          "indexed": false,
          "internalType": "bool",
          "name": "_approved",
          "type": "bool"
        }
      ],
      "name": "ApprovalForAll",
      "type": "event"
    },
    {
      "anonymous": false,
      "inputs": [
        {
          "indexed": true,
          "internalType": "address",
          "name": "_from",
          "type": "address"
        },
        {
          "indexed": true,
          "internalType": "address",
          "name": "_to",
          "type": "address"
        },
        {
          "indexed": true,
          "internalType": "uint256",
          "name": "_tokenId",
          "type": "uint256"
        }
      ],
      "name": "Transfer",
      "type": "event"
    },
    {
      "inputs": [],
      "name": "MAX_DOGS",
      "outputs": [
        {
          "internalType": "uint256",
          "name": "",
          "type": "uint256"
        }
      ],
      "stateMutability": "view",
      "type": "function"
    },
    {
      "inputs": [
        {
          "internalType": "address",
          "name": "to",
          "type": "address"
        },
        {
          "internalType": "uint256",
          "name": "tokenId",
          "type": "uint256"
        }
      ],
      "name": "approve",
      "outputs": [],
      "stateMutability": "payable",
      "type": "function"
    },
    {
      "inputs": [
        {
          "internalType": "address",
          "name": "owner",
          "type": "address"
        }
      ],
      "name": "balanceOf",
      "outputs": [
        {
          "internalType": "uint256",
          "name": "",
          "type": "uint256"
        }
      ],
      "stateMutability": "view",
      "type": "function"
    },
    {
      "inputs": [
        {
          "internalType": "uint256",
          "name": "tokenId",
          "type": "uint256"
        }
      ],
      "name": "getApproved",
      "outputs": [
        {
          "internalType": "address",
          "name": "",
          "type": "address"
        }
      ],
      "stateMutability": "view",
      "type": "function"
    },
    {
      "inputs": [
        {
          "internalType": "address",
          "name": "owner",
          "type": "address"
        },
        {
          "internalType": "address",
          "name": "operator",
          "type": "address"
        }
      ],
      "name": "isApprovedForAll",
      "outputs": [
        {
          "internalType": "bool",
          "name": "",
          "type": "bool"
        }
      ],
      "stateMutability": "view",
      "type": "function"
    },
    {
      "inputs": [],
      "name": "mint",
      "outputs": [],
      "stateMutability": "nonpayable",
      "type": "function"
    },
    {
      "inputs": [],
      "name": "name",
      "outputs": [
        {
          "internalType": "string",
          "name": "",
          "type": "string"
        }
      ],
      "stateMutability": "view",
      "type": "function"
    },
    {
      "inputs": [
        {
          "internalType": "uint256",
          "name": "tokenId",
          "type": "uint256"
        }
      ],
      "name": "ownerOf",
      "outputs": [
        {
          "internalType": "address",
          "name": "",
          "type": "address"
        }
      ],
      "stateMutability": "view",
      "type": "function"
    },
    {
      "inputs": [
        {
          "internalType": "address",
          "name": "from",
          "type": "address"
        },
        {
          "internalType": "address",
          "name": "to",
          "type": "address"
        },
        {
          "internalType": "uint256",
          "name": "tokenId",
          "type": "uint256"
        }
      ],
      "name": "safeTransferFrom",
      "outputs": [],
      "stateMutability": "payable",
      "type": "function"
    },
    {
      "inputs": [
        {
          "internalType": "address",
          "name": "from",
          "type": "address"
        },
        {
          "internalType": "address",
          "name": "to",
          "type": "address"
        },
        {
          "internalType": "uint256",
          "name": "tokenId",
          "type": "uint256"
        },
        {
          "internalType": "bytes",
          "name": "_data",
          "type": "bytes"
        }
      ],
      "name": "safeTransferFrom",
      "outputs": [],
      "stateMutability": "payable",
      "type": "function"
    },
    {
      "inputs": [
        {
          "internalType": "address",
          "name": "operator",
          "type": "address"
        },
        {
          "internalType": "bool",
          "name": "approved",
          "type": "bool"
        }
      ],
      "name": "setApprovalForAll",
      "outputs": [],
      "stateMutability": "nonpayable",
      "type": "function"
    },
    {
      "inputs": [
        {
          "internalType": "bytes4",
          "name": "interfaceId",
          "type": "bytes4"
        }
      ],
      "name": "supportsInterface",
      "outputs": [
        {
          "internalType": "bool",
          "name": "",
          "type": "bool"
        }
      ],
      "stateMutability": "view",
      "type": "function"
    },
    {
      "inputs": [],
      "name": "symbol",
      "outputs": [
        {
          "internalType": "string",
          "name": "",
          "type": "string"
        }
      ],
      "stateMutability": "view",
      "type": "function"
    },
    {
      "inputs": [
        {
          "internalType": "uint256",
          "name": "tokenId",
          "type": "uint256"
        }
      ],
      "name": "tokenURI",
      "outputs": [
        {
          "internalType": "string",
          "name": "",
          "type": "string"
        }
      ],
      "stateMutability": "view",
      "type": "function"
    },
    {
      "inputs": [],
      "name": "totalSupply",
      "outputs": [
        {
          "internalType": "uint256",
          "name": "",
          "type": "uint256"
        }
      ],
      "stateMutability": "view",
      "type": "function"
    },
    {
      "inputs": [
        {
          "internalType": "address",
          "name": "to_",
          "type": "address"
        },
        {
          "internalType": "uint256",
          "name": "tokenId_",
          "type": "uint256"
        }
      ],
      "name": "transfer",
      "outputs": [],
      "stateMutability": "nonpayable",
      "type": "function"
    },
    {
      "inputs": [
        {
          "internalType": "address",
          "name": "from",
          "type": "address"
        },
        {
          "internalType": "address",
          "name": "to",
          "type": "address"
        },
        {
          "internalType": "uint256",
          "name": "tokenId",
          "type": "uint256"
        }
      ],
      "name": "transferFrom",
      "outputs": [],
      "stateMutability": "payable",
      "type": "function"
    }
  ],
  "bytecode": "0x60806040523480156200001157600080fd5b506040805180820182526006815265446f67496e7560d01b60208083019182528351808501909452600384526244474960e81b9084015281519192916200005b916000916200007f565b508051620000719060019060208401906200007f565b505060006006555062000162565b8280546200008d9062000125565b90600052602060002090601f016020900481019282620000b15760008555620000fc565b82601f10620000cc57805160ff1916838001178555620000fc565b82800160010185558215620000fc579182015b82811115620000fc578251825591602001919060010190620000df565b506200010a9291506200010e565b5090565b5b808211156200010a57600081556001016200010f565b6002810460018216806200013a57607f821691505b602082108114156200015c57634e487b7160e01b600052602260045260246000fd5b50919050565b61123380620001726000396000f3fe6080604052600436106100fe5760003560e01c80636352211e11610095578063a9059cbb11610064578063a9059cbb1461026f578063b88d4fde1461028f578063c61cb000146102a2578063c87b56dd146102b7578063e985e9c5146102d7576100fe565b80636352211e146101fa57806370a082311461021a57806395d89b411461023a578063a22cb4651461024f576100fe565b80631249c58b116100d15780631249c58b1461019d57806318160ddd146101b257806323b872dd146101d457806342842e0e146101e7576100fe565b806301ffc9a71461010357806306fdde0314610139578063081812fc1461015b578063095ea7b314610188575b600080fd5b34801561010f57600080fd5b5061012361011e366004610ca7565b6102f7565b6040516101309190610d1d565b60405180910390f35b34801561014557600080fd5b5061014e61033f565b6040516101309190610d28565b34801561016757600080fd5b5061017b610176366004610ccf565b6103d1565b6040516101309190610d09565b61019b610196366004610c7e565b61041d565b005b3480156101a957600080fd5b5061019b6104a3565b3480156101be57600080fd5b506101c7610504565b6040516101309190611132565b61019b6101e2366004610b3d565b61050a565b61019b6101f5366004610b3d565b61053b565b34801561020657600080fd5b5061017b610215366004610ccf565b61057c565b34801561022657600080fd5b506101c7610235366004610af1565b6105b1565b34801561024657600080fd5b5061014e6105f5565b34801561025b57600080fd5b5061019b61026a366004610c44565b610604565b34801561027b57600080fd5b5061019b61028a366004610c7e565b610613565b61019b61029d366004610b78565b61061e565b3480156102ae57600080fd5b506101c7610656565b3480156102c357600080fd5b5061014e6102d2366004610ccf565b61065c565b3480156102e357600080fd5b506101236102f2366004610b0b565b6106d7565b60006001600160e01b031982166380ac58cd60e01b148061032857506001600160e01b03198216635b5e139f60e01b145b806103375750610337826102f7565b90505b919050565b60606000805461034e90611196565b80601f016020809104026020016040519081016040528092919081815260200182805461037a90611196565b80156103c75780601f1061039c576101008083540402835291602001916103c7565b820191906000526020600020905b8154815290600101906020018083116103aa57829003601f168201915b5050505050905090565b60006103dc82610705565b6104015760405162461bcd60e51b81526004016103f890611005565b60405180910390fd5b506000908152600460205260409020546001600160a01b031690565b60006104288261057c565b9050806001600160a01b0316836001600160a01b0316141561045c5760405162461bcd60e51b81526004016103f8906110a0565b336001600160a01b0382161480610478575061047881336106d7565b6104945760405162461bcd60e51b81526004016103f890610e9e565b61049e8383610722565b505050565b61271060065460016104b5919061113b565b106104d25760405162461bcd60e51b81526004016103f890610efb565b6104ea3360065460016104e5919061113b565b610790565b6001600660008282546104fd919061113b565b9091555050565b60065481565b6105143382610863565b6105305760405162461bcd60e51b81526004016103f8906110e1565b61049e8383836108e8565b6105453382610863565b6105615760405162461bcd60e51b81526004016103f8906110e1565b61049e8383836040518060200160405280600081525061061e565b6000818152600260205260408120546001600160a01b0316806103375760405162461bcd60e51b81526004016103f890610f87565b60006001600160a01b0382166105d95760405162461bcd60e51b81526004016103f890610f3d565b506001600160a01b031660009081526003602052604090205490565b60606001805461034e90611196565b61060f338383610a0a565b5050565b61060f33838361053b565b6106283383610863565b6106445760405162461bcd60e51b81526004016103f8906110e1565b61065084848484610aad565b50505050565b61271081565b606061066782610705565b6106835760405162461bcd60e51b81526004016103f890611051565b600061068d610ac8565b905060008151116106ad57604051806020016040528060008152506106d0565b80836040516020016106c0929190610ce7565b6040516020818303038152906040525b9392505050565b6001600160a01b03918216600090815260056020908152604080832093909416825291909152205460ff1690565b6000908152600260205260409020546001600160a01b0316151590565b600081815260046020526040902080546001600160a01b0319166001600160a01b03841690811790915581906107578261057c565b6001600160a01b03167f8c5be1e5ebec7d5bd14f71427d1e84f3dd0314c0f7b2291e5b200ac8c7c3b92560405160405180910390a45050565b6001600160a01b0382166107b65760405162461bcd60e51b81526004016103f890610fd0565b6107bf81610705565b156107dc5760405162461bcd60e51b81526004016103f890610da0565b6001600160a01b038216600090815260036020526040812080546001929061080590849061113b565b909155505060008181526002602052604080822080546001600160a01b0319166001600160a01b03861690811790915590518392907fddf252ad1be2c89b69c2b068fc378daa952ba7f163c4a11628f55a4df523b3ef908290a45050565b600061086e82610705565b61088a5760405162461bcd60e51b81526004016103f890610e52565b60006108958361057c565b9050806001600160a01b0316846001600160a01b031614806108bc57506108bc81856106d7565b806108e05750836001600160a01b03166108d5846103d1565b6001600160a01b0316145b949350505050565b826001600160a01b03166108fb8261057c565b6001600160a01b0316146109215760405162461bcd60e51b81526004016103f890610d5b565b6001600160a01b0382166109475760405162461bcd60e51b81526004016103f890610dd7565b610952600082610722565b6001600160a01b038316600090815260036020526040812080546001929061097b908490611153565b90915550506001600160a01b03821660009081526003602052604081208054600192906109a990849061113b565b909155505060008181526002602052604080822080546001600160a01b0319166001600160a01b0386811691821790925591518493918716917fddf252ad1be2c89b69c2b068fc378daa952ba7f163c4a11628f55a4df523b3ef91a4505050565b816001600160a01b0316836001600160a01b03161415610a3c5760405162461bcd60e51b81526004016103f890610e1b565b6001600160a01b0383811660008181526005602090815260408083209487168084529490915290819020805460ff1916851515179055517f17307eab39ab6107e8899845ad3d59bd9653f200f220920489ca2b5937696c3190610aa0908590610d1d565b60405180910390a3505050565b506040805160208101909152600081526106508484846108e8565b60408051602081019091526000815290565b80356001600160a01b038116811461033a57600080fd5b600060208284031215610b02578081fd5b6106d082610ada565b60008060408385031215610b1d578081fd5b610b2683610ada565b9150610b3460208401610ada565b90509250929050565b600080600060608486031215610b51578081fd5b610b5a84610ada565b9250610b6860208501610ada565b9150604084013590509250925092565b60008060008060808587031215610b8d578081fd5b610b9685610ada565b93506020610ba5818701610ada565b935060408601359250606086013567ffffffffffffffff80821115610bc8578384fd5b818801915088601f830112610bdb578384fd5b813581811115610bed57610bed6111e7565b604051601f8201601f1916810185018381118282101715610c1057610c106111e7565b60405281815283820185018b1015610c26578586fd5b81858501868301379081019093019390935250939692955090935050565b60008060408385031215610c56578182fd5b610c5f83610ada565b915060208301358015158114610c73578182fd5b809150509250929050565b60008060408385031215610c90578182fd5b610c9983610ada565b946020939093013593505050565b600060208284031215610cb8578081fd5b81356001600160e01b0319811681146106d0578182fd5b600060208284031215610ce0578081fd5b5035919050565b60008351610cf981846020880161116a565b9190910191825250602001919050565b6001600160a01b0391909116815260200190565b901515815260200190565b6000602082528251806020840152610d4781604085016020870161116a565b601f01601f19169190910160400192915050565b60208082526025908201527f4552433732313a207472616e736665722066726f6d20696e636f72726563742060408201526437bbb732b960d91b606082015260800190565b6020808252601c908201527f4552433732313a20746f6b656e20616c7265616479206d696e74656400000000604082015260600190565b60208082526024908201527f4552433732313a207472616e7366657220746f20746865207a65726f206164646040820152637265737360e01b606082015260800190565b60208082526019908201527f4552433732313a20617070726f766520746f2063616c6c657200000000000000604082015260600190565b6020808252602c908201527f4552433732313a206f70657261746f7220717565727920666f72206e6f6e657860408201526b34b9ba32b73a103a37b5b2b760a11b606082015260800190565b60208082526038908201527f4552433732313a20617070726f76652063616c6c6572206973206e6f74206f7760408201527f6e6572206e6f7220617070726f76656420666f7220616c6c0000000000000000606082015260800190565b60208082526022908201527f416c6c20446f6773206861766520616c7265616479206265656e206d696e7465604082015261642160f01b606082015260800190565b6020808252602a908201527f4552433732313a2062616c616e636520717565727920666f7220746865207a65604082015269726f206164647265737360b01b606082015260800190565b60208082526029908201527f4552433732313a206f776e657220717565727920666f72206e6f6e657869737460408201526832b73a103a37b5b2b760b91b606082015260800190565b6020808252818101527f4552433732313a206d696e7420746f20746865207a65726f2061646472657373604082015260600190565b6020808252602c908201527f4552433732313a20617070726f76656420717565727920666f72206e6f6e657860408201526b34b9ba32b73a103a37b5b2b760a11b606082015260800190565b6020808252602f908201527f4552433732314d657461646174613a2055524920717565727920666f72206e6f60408201526e3732bc34b9ba32b73a103a37b5b2b760891b606082015260800190565b60208082526021908201527f4552433732313a20617070726f76616c20746f2063757272656e74206f776e656040820152603960f91b606082015260800190565b60208082526031908201527f4552433732313a207472616e736665722063616c6c6572206973206e6f74206f6040820152701ddb995c881b9bdc88185c1c1c9bdd9959607a1b606082015260800190565b90815260200190565b6000821982111561114e5761114e6111d1565b500190565b600082821015611165576111656111d1565b500390565b60005b8381101561118557818101518382015260200161116d565b838111156106505750506000910152565b6002810460018216806111aa57607f821691505b602082108114156111cb57634e487b7160e01b600052602260045260246000fd5b50919050565b634e487b7160e01b600052601160045260246000fd5b634e487b7160e01b600052604160045260246000fdfea264697066735822122098e85b8fe4f3026ec93b9f5d70feaf21893e23561fbee881ea0495b26794386564736f6c63430008000033",
  "linkReferences": {},
  "deployedLinkReferences": {}
}